:4000000080673030303030307e3030307e3030307e3030307e3030307e3030307d078a7e7e3030307e3030307d02d97e7e3030307e3030307e3030307e3030307e303030af
:4000400030303030303030303030303030303030303030303030303030303030303030307e3030307d02f47e711062e38770ef62e33841fefb504a4e62e33855f80055f91e
:4000800000711062e01270ef62e338627105627505627905627d057c026f50005500093c004aa0053f008ff8500157aa5500003c0000a00b08283f00187509008ff27110f6
:4000c00070ef62e000711062e01070ef62e2007c05268fff50107f303030303030303030303030303030303030303030303030303030303030303030303030303030303025
:4001000030303030303030303030303030303030303030303030303030303030303030303030303030303030303030303030303030303030303030303030303030303030bf
:40014000303030303030303030303030303030302b0029002a006028660063056500e600e700d600b001b101b200b333b433b520b602b855b900ba10bb33bc33bd00be004c
:40018000ff280629c62a6e61006900600062006733683363006600d100d300d000d200e171e200dfffde02dd00ff70ef620000711062006662019970ef620381620270715d
:4001c0001062020862030070ef62010862040071106204006205ff70ef6207ff620600711062060062070070ef620500620800711062087f62098070ef620b80620a007172
:4002000010620a00620b0070ef620900620c007110620c00620d0070ef620f00620e007110620e00620f0070ef620d00621000711062100062110070ef621300621200713e
:400240001062120062130070ef621100621400711062140062150070ef621700621600711062160062170070ef62150070ef7f55050055060055077f5508807c02827c016f
:40028000aa7f1070ef500067500157507c029d500167500157817c029d70ef207f380210084f56fc00d00456fc01182070ef62e30010082839ffa01f4f48fc01a0037110fd
:4002c00054fd18207509001008284f59fd610018207509008fd738fc7f7e43e1047f41e1fb7f2901602b7f412bfe7f60297f5d2a7f5d2b7f2e01014703ffa0037a0347020d
:40030000ffa0037a0276047e43e0407f41e0bf7f500053015302530353047f7f21184f0871105de021e72b0060e070ef187f5501004701ffaffc55010078bff67f4b210154
:40034000b0064703ffbffc4b53037f51047f53027f51027f081028b00420187f903c201875dff2748fef303132333435363738394142434445460867676767210fffe79056
:400380001918210fffe090127f4b9fea5b9fe77f5200a0069004758ff87f905f0867676767210f903818210f40404090307f904b0867676767210f900918210f40404090ef
:4003c000017f082606805106600818210f29102a066008530640218f530660087f082606802e06205106600818210f29302a06600853064021af530660087f0826068051ba
:400400000660082607f051077110600870ef2e064051066008401057ff2e06505106600840405d08082606c0510660084040402e06505106600840402606c0510660081897
:400440002108a00479bfd3202e077f51077110600870ef187f2607802e077f2608805107711060085108600970ef50fa906350fa905f50039f4c5052905750039f44905fc6
:40048000905d905b50039f3a505a904550029f32505a903d50089f16505a903550019f0e505a902d50069f06500e9f02502c9efe50089efa500c9ef650039ef2505a90111e
:4004c0007f80c094d4210310fff74f03ff209ede7f900c78bffc7f08193a7c010101010871105de070ef21073905d006ffe978bffe187f0850c8901678bffc1878bff57f45
:40050000900c78bffc7f08193a7c010101010871105de070ef21073905d006ffe978bffe187f4e2f4100554700554801550900500008205b3906a013f253534675105700a8
:400540005bffdf3f46afec758ff743010843e020710150007c02e27c04557c03087c031050107c034e500a7c04f3907a80615109b0237c03513900bff676473c4706b004c1
:4005800055470076483c4806b00455480050107c034e803b550900500790f9210e70fb6d3907a01208506090eb5c1891355027574090c28fe391832605fb5105600050e286
:4005c0007c02eb91752e05045105600091b0500057007c04c551479169500157007c04c55148915e8f892e05045105600050149f0f50205739907e5021573f90785022576e
:400600003f907250235703906c50245700906650255705906050265720905a503c573f9054503d5704904e4f5a4650000850180850ef0850cd0850ab0810502a5705907f70
:400640002077005a465705502b907438fb502c57029022502d5703901c502e57049016502f570590105020573b900a2e050251056000910a7f10082605fb5105600090ba52
:40068000187c02eb90b4187c02eb90ae2e0504510560007f082605fb51056000909c187c02eb909650007c02eb908f7c02f12128affa7c02ee082e050451056000187f5a08
:4006c00049082605fb51056000906f187c02eb90693e467c02eb7a49bff62e0504510560007f5a493c490ad005570080084b11094b55490910f0965346903f2605fb5105cc
:40070000600050617c02eb903150007c02eb7c02f12128affa7c02ee3f467a49bfec18a00e534950007c02eb90107a49bff62e05045105600050003f467f7c02f12110af42
:40074000fa7f53494f5054085078085149013008503a085020085149f03353463e46a004088ffa5020085043085020085020085020085000081050007c0390184e7f500036
:40078000089f1118743918bff87f76097e0a141e28323c3030303030303030303030303030303030303030303030303030303030303030303030303030303030303030302f
:4007c00030303030303030303030303030303030303030303030303030303030303030303030303030303030303030303030303030303030303030303030303030303030f9
:4008000030303030303030303030303030303030303030303030303030303030303030303030303030303030303030303030303030303030303030303030303030303030b8
:400840003030303030303030303030303030303030303030303030303030303030303030303030303030303030303030303030303030303030303030303030303030303078
:400880003030303030303030303030303030303030303030303030303030303030303030303030303030303030303030303030303030303030303030303030303030303038
:020000040010ea
:020000040020da
:02000000ec71a1
:00000001ff
